{
  "contractName": "SalesContract",
  "abi": [
    {
      "constant": true,
      "inputs": [],
      "name": "seller",
      "outputs": [
        {
          "name": "",
          "type": "address"
        }
      ],
      "payable": false,
      "stateMutability": "view",
      "type": "function"
    },
    {
      "constant": true,
      "inputs": [
        {
          "name": "",
          "type": "uint256"
        }
      ],
      "name": "listedOrderNumbers",
      "outputs": [
        {
          "name": "",
          "type": "uint256"
        }
      ],
      "payable": false,
      "stateMutability": "view",
      "type": "function"
    },
    {
      "constant": true,
      "inputs": [
        {
          "name": "",
          "type": "uint256"
        }
      ],
      "name": "listedProductsIds",
      "outputs": [
        {
          "name": "",
          "type": "string"
        }
      ],
      "payable": false,
      "stateMutability": "view",
      "type": "function"
    },
    {
      "constant": true,
      "inputs": [],
      "name": "orderNumber",
      "outputs": [
        {
          "name": "",
          "type": "uint256"
        }
      ],
      "payable": false,
      "stateMutability": "view",
      "type": "function"
    },
    {
      "constant": true,
      "inputs": [],
      "name": "productsCount",
      "outputs": [
        {
          "name": "",
          "type": "uint256"
        }
      ],
      "payable": false,
      "stateMutability": "view",
      "type": "function"
    },
    {
      "inputs": [],
      "payable": true,
      "stateMutability": "payable",
      "type": "constructor"
    },
    {
      "anonymous": false,
      "inputs": [
        {
          "components": [
            {
              "name": "productId",
              "type": "string"
            },
            {
              "name": "productDescription",
              "type": "string"
            },
            {
              "name": "unitPrice",
              "type": "uint256"
            },
            {
              "name": "availableQty",
              "type": "uint256"
            }
          ],
          "indexed": false,
          "name": "product",
          "type": "tuple"
        }
      ],
      "name": "ProductEvent",
      "type": "event"
    },
    {
      "anonymous": false,
      "inputs": [
        {
          "components": [
            {
              "name": "purchaser",
              "type": "address"
            },
            {
              "name": "productId",
              "type": "string"
            },
            {
              "name": "qty",
              "type": "uint256"
            },
            {
              "name": "unitPrice",
              "type": "uint256"
            },
            {
              "name": "totalPrice",
              "type": "uint256"
            },
            {
              "name": "paid",
              "type": "bool"
            },
            {
              "name": "shipped",
              "type": "bool"
            },
            {
              "name": "received",
              "type": "bool"
            }
          ],
          "indexed": false,
          "name": "order",
          "type": "tuple"
        }
      ],
      "name": "OrderEvent",
      "type": "event"
    },
    {
      "constant": false,
      "inputs": [
        {
          "name": "_productId",
          "type": "string"
        },
        {
          "name": "_productDescription",
          "type": "string"
        },
        {
          "name": "_unitPrice",
          "type": "uint256"
        },
        {
          "name": "_availableQty",
          "type": "uint256"
        }
      ],
      "name": "addProduct",
      "outputs": [],
      "payable": false,
      "stateMutability": "nonpayable",
      "type": "function"
    },
    {
      "constant": true,
      "inputs": [],
      "name": "getListedProductsIdLength",
      "outputs": [
        {
          "name": "",
          "type": "uint256"
        }
      ],
      "payable": false,
      "stateMutability": "view",
      "type": "function"
    },
    {
      "constant": true,
      "inputs": [
        {
          "name": "_productId",
          "type": "string"
        }
      ],
      "name": "retrieveProduct",
      "outputs": [
        {
          "name": "",
          "type": "string"
        },
        {
          "name": "",
          "type": "string"
        },
        {
          "name": "",
          "type": "uint256"
        },
        {
          "name": "",
          "type": "uint256"
        }
      ],
      "payable": false,
      "stateMutability": "view",
      "type": "function"
    },
    {
      "constant": false,
      "inputs": [
        {
          "name": "_index",
          "type": "uint256"
        }
      ],
      "name": "deleteListedProduct",
      "outputs": [],
      "payable": false,
      "stateMutability": "nonpayable",
      "type": "function"
    },
    {
      "constant": true,
      "inputs": [
        {
          "name": "_index",
          "type": "uint256"
        }
      ],
      "name": "getListedProduct",
      "outputs": [
        {
          "name": "",
          "type": "string"
        }
      ],
      "payable": false,
      "stateMutability": "view",
      "type": "function"
    },
    {
      "constant": false,
      "inputs": [
        {
          "name": "_productId",
          "type": "string"
        },
        {
          "name": "_qty",
          "type": "uint256"
        }
      ],
      "name": "orderProduct",
      "outputs": [],
      "payable": true,
      "stateMutability": "payable",
      "type": "function"
    },
    {
      "constant": false,
      "inputs": [
        {
          "name": "_orderNumber",
          "type": "uint256"
        }
      ],
      "name": "ship",
      "outputs": [],
      "payable": false,
      "stateMutability": "nonpayable",
      "type": "function"
    },
    {
      "constant": false,
      "inputs": [
        {
          "name": "_orderNumber",
          "type": "uint256"
        }
      ],
      "name": "receive",
      "outputs": [],
      "payable": false,
      "stateMutability": "nonpayable",
      "type": "function"
    },
    {
      "constant": true,
      "inputs": [
        {
          "name": "_orderNumber",
          "type": "uint256"
        }
      ],
      "name": "retrieveOrder",
      "outputs": [
        {
          "name": "",
          "type": "address"
        },
        {
          "name": "",
          "type": "string"
        },
        {
          "name": "",
          "type": "uint256"
        },
        {
          "name": "",
          "type": "uint256"
        },
        {
          "name": "",
          "type": "uint256"
        },
        {
          "name": "",
          "type": "bool"
        },
        {
          "name": "",
          "type": "bool"
        },
        {
          "name": "",
          "type": "bool"
        }
      ],
      "payable": false,
      "stateMutability": "view",
      "type": "function"
    }
  ],
  "bytecode": "0x6080604052336000806101000a81548173ffffffffffffffffffffffffffffffffffffffff021916908373ffffffffffffffffffffffffffffffffffffffff16021790555060006001819055506000600281905550611fb0806100636000396000f3006080604052600436106100d0576000357c0100000000000000000000000000000000000000000000000000000000900463ffffffff16806301cecd14146100d557806308551a5314610198578063120f4a97146101ef5780631b4dba9b14610230578063244f643b146102d65780637005578514610303578063785bd392146103695780637e226bb81461040f5780638e373fe01461056b578063b04dd81b1461067a578063c5cae65e146106a5578063cba2534f146106d2578063ccfeea44146106ff578063e0df7bb61461072a575b600080fd5b3480156100e157600080fd5b50610196600480360381019080803590602001908201803590602001908080601f0160208091040260200160405190810160405280939291908181526020018383808284378201915050505050509192919290803590602001908201803590602001908080601f01602080910402602001604051908101604052809392919081815260200183838082843782019150505050505091929192908035906020019092919080359060200190929190505050610755565b005b3480156101a457600080fd5b506101ad6109b7565b604051808273ffffffffffffffffffffffffffffffffffffffff1673ffffffffffffffffffffffffffffffffffffffff16815260200191505060405180910390f35b3480156101fb57600080fd5b5061021a600480360381019080803590602001909291905050506109dc565b6040518082815260200191505060405180910390f35b34801561023c57600080fd5b5061025b600480360381019080803590602001909291905050506109ff565b6040518080602001828103825283818151815260200191508051906020019080838360005b8381101561029b578082015181840152602081019050610280565b50505050905090810190601f1680156102c85780820380516001836020036101000a031916815260200191505b509250505060405180910390f35b3480156102e257600080fd5b5061030160048036038101908080359060200190929190505050610aba565b005b610367600480360381019080803590602001908201803590602001908080601f016020809104026020016040519081016040528093929190818152602001838380828437820191505050505050919291929080359060200190929190505050610da9565b005b34801561037557600080fd5b506103946004803603810190808035906020019092919050505061145c565b6040518080602001828103825283818151815260200191508051906020019080838360005b838110156103d45780820151818401526020810190506103b9565b50505050905090810190601f1680156104015780820380516001836020036101000a031916815260200191505b509250505060405180910390f35b34801561041b57600080fd5b50610476600480360381019080803590602001908201803590602001908080601f0160208091040260200160405190810160405280939291908181526020018383808284378201915050505050509192919290505050611517565b604051808060200180602001858152602001848152602001838103835287818151815260200191508051906020019080838360005b838110156104c65780820151818401526020810190506104ab565b50505050905090810190601f1680156104f35780820380516001836020036101000a031916815260200191505b50838103825286818151815260200191508051906020019080838360005b8381101561052c578082015181840152602081019050610511565b50505050905090810190601f1680156105595780820380516001836020036101000a031916815260200191505b50965050505050505060405180910390f35b34801561057757600080fd5b506105966004803603810190808035906020019092919050505061181e565b604051808973ffffffffffffffffffffffffffffffffffffffff1673ffffffffffffffffffffffffffffffffffffffff16815260200180602001888152602001878152602001868152602001851515151581526020018415151515815260200183151515158152602001828103825289818151815260200191508051906020019080838360005b8381101561063857808201518184015260208101905061061d565b50505050905090810190601f1680156106655780820380516001836020036101000a031916815260200191505b50995050505050505050505060405180910390f35b34801561068657600080fd5b5061068f611968565b6040518082815260200191505060405180910390f35b3480156106b157600080fd5b506106d06004803603810190808035906020019092919050505061196e565b005b3480156106de57600080fd5b506106fd600480360381019080803590602001909291905050506119a9565b005b34801561070b57600080fd5b50610714611d79565b6040518082815260200191505060405180910390f35b34801561073657600080fd5b5061073f611d86565b6040518082815260200191505060405180910390f35b61075d611d8c565b6000809054906101000a900473ffffffffffffffffffffffffffffffffffffffff1673ffffffffffffffffffffffffffffffffffffffff163373ffffffffffffffffffffffffffffffffffffffff16141515610847576040517f08c379a000000000000000000000000000000000000000000000000000000000815260040180806020018281038252602b8152602001807f536f7272792c20796f7520617265206e6f7420616c6c6f77656420746f20616481526020017f642070726f64756374732e00000000000000000000000000000000000000000081525060400191505060405180910390fd5b6003859080600181540180825580915050906001820390600052602060002001600090919290919091509080519060200190610884929190611db5565b5050608060405190810160405280868152602001858152602001848152602001838152509050806004866040518082805190602001908083835b6020831015156108e357805182526020820191506020810190506020830392506108be565b6001836020036101000a03801982511681845116808217855250505050505090500191505090815260200160405180910390206000820151816000019080519060200190610932929190611e35565b50602082015181600101908051906020019061094f929190611e35565b5060408201518160020155606082015181600301559050506002600081548092919060010191905055507f605c2981b7259ecb799c6f50ef42cf2240569ce3f41838b3bbf7ab1afa2b79ad816040518082815260200191505060405180910390a15050505050565b6000809054906101000a900473ffffffffffffffffffffffffffffffffffffffff1681565b6006818154811015156109eb57fe5b906000526020600020016000915090505481565b6060600382815481101515610a1057fe5b906000526020600020018054600181600116156101000203166002900480601f016020809104026020016040519081016040528092919081815260200182805460018160011615610100020316600290048015610aae5780601f10610a8357610100808354040283529160200191610aae565b820191906000526020600020905b815481529060010190602001808311610a9157829003601f168201915b50505050509050919050565b60008060009054906101000a900473ffffffffffffffffffffffffffffffffffffffff1673ffffffffffffffffffffffffffffffffffffffff163373ffffffffffffffffffffffffffffffffffffffff16141515610ba6576040517f08c379a000000000000000000000000000000000000000000000000000000000815260040180806020018281038252602a8152602001807f536f7272792c206f6e6c79207468652073656c6c65722063616e20736869702081526020017f746865206f726465722e0000000000000000000000000000000000000000000081525060400191505060405180910390fd5b600560008381526020019081526020016000209050600115158160050160009054906101000a900460ff161515141515610c6e576040517f08c379a000000000000000000000000000000000000000000000000000000000815260040180806020018281038252602a8152602001807f5061796d656e74206973206e6f74206d616465207965742e20506c656173652081526020017f7061792066697273742e0000000000000000000000000000000000000000000081525060400191505060405180910390fd5b600015158160050160019054906101000a900460ff161515141515610cfb576040517f08c379a000000000000000000000000000000000000000000000000000000000815260040180806020018281038252601d8152602001807f546865206f7264657220697320616c726561647920736869707065642e00000081525060200191505060405180910390fd5b600015158160050160029054906101000a900460ff161515141515610d88576040517f08c379a000000000000000000000000000000000000000000000000000000000815260040180806020018281038252601e8152602001807f546865206f7264657220697320616c72656164792072656365697665642e000081525060200191505060405180910390fd5b60018160050160016101000a81548160ff0219169083151502179055505050565b600080610db4611eb5565b610dbc611d8c565b6004866040518082805190602001908083835b602083101515610df45780518252602082019150602081019050602083039250610dcf565b6001836020036101000a0380198251168184511680821785525050505050509050019150509081526020016040518091039020935060008460030154111515610ecb576040517f08c379a00000000000000000000000000000000000000000000000000000000081526004018080602001828103825260268152602001807f5468657265206973206e6f206d6f72652073746f636b206f662074686520707281526020017f6f647563742e000000000000000000000000000000000000000000000000000081525060400191505060405180910390fd5b84846003015410151515610f93576040517f08c379a00000000000000000000000000000000000000000000000000000000081526004018080602001828103825260428152602001807f536f7272792c207468657265206973206e6f7420656e6f75676820717479207481526020017f6f206d65657420796f7572207265717565737420617420746865206d6f6d656e81526020017f742e00000000000000000000000000000000000000000000000000000000000081525060600191505060405180910390fd5b8484600201540292508234141515611039576040517f08c379a00000000000000000000000000000000000000000000000000000000081526004018080602001828103825260408152602001807f596f7572207061796d656e742068617320746f206265207468652073616d652081526020017f61732074686520746f74616c207072696365206f6620746865206f726465722e81525060400191505060405180910390fd5b610100604051908101604052803373ffffffffffffffffffffffffffffffffffffffff168152602001856000018054600181600116156101000203166002900480601f0160208091040260200160405190810160405280929190818152602001828054600181600116156101000203166002900480156110fa5780601f106110cf576101008083540402835291602001916110fa565b820191906000526020600020905b8154815290600101906020018083116110dd57829003601f168201915b50505050508152602001868152602001856002015481526020018481526020016001151581526020016000151581526020016000151581525091506001600081548092919060010191905055508160056000600154815260200190815260200160002060008201518160000160006101000a81548173ffffffffffffffffffffffffffffffffffffffff021916908373ffffffffffffffffffffffffffffffffffffffff16021790555060208201518160010190805190602001906111c0929190611e35565b5060408201518160020155606082015181600301556080820151816004015560a08201518160050160006101000a81548160ff02191690831515021790555060c08201518160050160016101000a81548160ff02191690831515021790555060e08201518160050160026101000a81548160ff021916908315150217905550905050600660015490806001815401808255809150509060018203906000526020600020016000909192909190915055508484600301540384600301819055508360806040519081016040529081600082018054600181600116156101000203166002900480601f0160208091040260200160405190810160405280929190818152602001828054600181600116156101000203166002900480156113255780601f106112fa57610100808354040283529160200191611325565b820191906000526020600020905b81548152906001019060200180831161130857829003601f168201915b50505050508152602001600182018054600181600116156101000203166002900480601f0160208091040260200160405190810160405280929190818152602001828054600181600116156101000203166002900480156113c75780601f1061139c576101008083540402835291602001916113c7565b820191906000526020600020905b8154815290600101906020018083116113aa57829003601f168201915b505050505081526020016002820154815260200160038201548152505090507f21ac53a8102dc8b3b87d417b642f668c75a0e30d82266d971fb655ce2ceaa302826040518082815260200191505060405180910390a17f605c2981b7259ecb799c6f50ef42cf2240569ce3f41838b3bbf7ab1afa2b79ad816040518082815260200191505060405180910390a1505050505050565b60038181548110151561146b57fe5b906000526020600020016000915090508054600181600116156101000203166002900480601f01602080910402602001604051908101604052809291908181526020018280546001816001161561010002031660029004801561150f5780601f106114e45761010080835404028352916020019161150f565b820191906000526020600020905b8154815290600101906020018083116114f257829003601f168201915b505050505081565b6060806000806004856040518082805190602001908083835b6020831015156115555780518252602082019150602081019050602083039250611530565b6001836020036101000a03801982511681845116808217855250505050505090500191505090815260200160405180910390206000016004866040518082805190602001908083835b6020831015156115c3578051825260208201915060208101905060208303925061159e565b6001836020036101000a03801982511681845116808217855250505050505090500191505090815260200160405180910390206001016004876040518082805190602001908083835b602083101515611631578051825260208201915060208101905060208303925061160c565b6001836020036101000a0380198251168184511680821785525050505050509050019150509081526020016040518091039020600201546004886040518082805190602001908083835b6020831015156116a0578051825260208201915060208101905060208303925061167b565b6001836020036101000a038019825116818451168082178552505050505050905001915050908152602001604051809103902060030154838054600181600116156101000203166002900480601f01602080910402602001604051908101604052809291908181526020018280546001816001161561010002031660029004801561176c5780601f106117415761010080835404028352916020019161176c565b820191906000526020600020905b81548152906001019060200180831161174f57829003601f168201915b50505050509350828054600181600116156101000203166002900480601f0160208091040260200160405190810160405280929190818152602001828054600181600116156101000203166002900480156118085780601f106117dd57610100808354040283529160200191611808565b820191906000526020600020905b8154815290600101906020018083116117eb57829003601f168201915b5050505050925093509350935093509193509193565b600060606000806000806000806000600560008b815260200190815260200160002090508060000160009054906101000a900473ffffffffffffffffffffffffffffffffffffffff16816001018260020154836003015484600401548560050160009054906101000a900460ff168660050160019054906101000a900460ff168760050160029054906101000a900460ff16868054600181600116156101000203166002900480601f0160208091040260200160405190810160405280929190818152602001828054600181600116156101000203166002900480156119455780601f1061191a57610100808354040283529160200191611945565b820191906000526020600020905b81548152906001019060200180831161192857829003601f168201915b505050505096509850985098509850985098509850985050919395975091939597565b60015481565b60038181548110151561197d57fe5b9060005260206000200160006119939190611f17565b6002600081548092919060019003919050555050565b60006005600083815260200190815260200160002090508060000160009054906101000a900473ffffffffffffffffffffffffffffffffffffffff1673ffffffffffffffffffffffffffffffffffffffff163373ffffffffffffffffffffffffffffffffffffffff16141515611ad3576040517f08c379a000000000000000000000000000000000000000000000000000000000815260040180806020018281038252604a8152602001807f536f7272792c206f6e6c7920746865207075726368617365722077686f206f7281526020017f64657265642074686520676f6f64732f73657276696365732063616e2072656381526020017f65697665207468656d2e0000000000000000000000000000000000000000000081525060600191505060405180910390fd5b600115158160050160009054906101000a900460ff161515141515611b86576040517f08c379a000000000000000000000000000000000000000000000000000000000815260040180806020018281038252602a8152602001807f5061796d656e74206973206e6f74206d616465207965742e20506c656173652081526020017f7061792066697273742e0000000000000000000000000000000000000000000081525060400191505060405180910390fd5b600115158160050160019054906101000a900460ff161515141515611c5f576040517f08c379a00000000000000000000000000000000000000000000000000000000081526004018080602001828103825260428152602001807f546865206f72646572206973206e6f742079657420736869707065642079657481526020017f2e2020506c656173652061736b20796f75722073656c6c657220746f2073686981526020017f702e00000000000000000000000000000000000000000000000000000000000081525060600191505060405180910390fd5b600015158160050160029054906101000a900460ff161515141515611cec576040517f08c379a000000000000000000000000000000000000000000000000000000000815260040180806020018281038252601e8152602001807f546865206f7264657220697320616c72656164792072656365697665642e000081525060200191505060405180910390fd5b60018160050160026101000a81548160ff0219169083151502179055506000809054906101000a900473ffffffffffffffffffffffffffffffffffffffff1673ffffffffffffffffffffffffffffffffffffffff166108fc82600401549081150290604051600060405180830381858888f19350505050158015611d74573d6000803e3d6000fd5b505050565b6000600380549050905090565b60025481565b608060405190810160405280606081526020016060815260200160008152602001600081525090565b828054600181600116156101000203166002900490600052602060002090601f016020900481019282601f10611df657805160ff1916838001178555611e24565b82800160010185558215611e24579182015b82811115611e23578251825591602001919060010190611e08565b5b509050611e319190611f5f565b5090565b828054600181600116156101000203166002900490600052602060002090601f016020900481019282601f10611e7657805160ff1916838001178555611ea4565b82800160010185558215611ea4579182015b82811115611ea3578251825591602001919060010190611e88565b5b509050611eb19190611f5f565b5090565b61010060405190810160405280600073ffffffffffffffffffffffffffffffffffffffff168152602001606081526020016000815260200160008152602001600081526020016000151581526020016000151581526020016000151581525090565b50805460018160011615610100020316600290046000825580601f10611f3d5750611f5c565b601f016020900490600052602060002090810190611f5b9190611f5f565b5b50565b611f8191905b80821115611f7d576000816000905550600101611f65565b5090565b905600a165627a7a7230582058ae5a3c4f770e09761251deb642d721f5e5b33cc42561538e1671837b07e57a0029",
  "source": "pragma solidity ^0.4.17;\n\ncontract SalesContract {\n    address public seller;\n    uint public orderNumber;\n    uint public productsCount;\n\n    string[] public listedProductsIds;\n    mapping(string => Product) products;\n    \n    struct Product {\n        string productId;\n        string productDescription;\n        uint unitPrice;\n        uint availableQty;\n    }\n    \n    struct Order {\n        address purchaser;\n        string productId;\n        uint qty;\n        uint unitPrice;\n        uint totalPrice;\n        bool paid;\n        bool shipped;\n        bool received;\n    }\n    \n    mapping(uint => Order) orders;\n    uint[] public listedOrderNumbers;\n    \n    constructor () public payable {\n        seller = msg.sender;\n        orderNumber = 0;\n        productsCount = 0;\n    }\n    event ProductEvent(Product product);\n    // products functions\n    function addProduct(\n        string _productId,\n        string _productDescription,\n        uint _unitPrice,\n        uint _availableQty\n    ) public {\n        require(msg.sender == seller, \"Sorry, you are not allowed to add products.\");\n        listedProductsIds.push(_productId);\n        Product memory newProduct = Product({\n           productId: _productId,\n           productDescription: _productDescription,\n           unitPrice: _unitPrice,\n           availableQty: _availableQty\n        });\n        products[_productId] = newProduct;\n        productsCount++;\n        emit ProductEvent(newProduct);\n    }\n    \n    function getListedProductsIdLength() public view returns (uint) {\n        return listedProductsIds.length;\n    }\n    \n    function retrieveProduct(string _productId) public view returns (\n        string, string, uint, uint\n    ) {\n        return (\n            products[_productId].productId,\n            products[_productId].productDescription,\n            products[_productId].unitPrice,\n            products[_productId].availableQty\n        );\n    }\n    \n    function deleteListedProduct(uint _index) public {\n        delete listedProductsIds[_index];\n        productsCount--;\n    }\n    // function getListedProductsId(uint _index) public view returns (string) {\n    //     return listedProductsIds[_index];\n    // }\n    function getListedProduct(uint _index) public view returns (string) {\n        return listedProductsIds[_index];\n    }\n    \n    event OrderEvent(Order order);\n    // Orders functions\n    function orderProduct(string _productId, uint _qty) public payable {\n        Product storage product = products[_productId];\n        require(product.availableQty > 0, \"There is no more stock of the product.\");\n        require(product.availableQty >= _qty, \"Sorry, there is not enough qty to meet your request at the moment.\");\n        uint totalPrice = product.unitPrice * _qty;\n        require(msg.value == totalPrice, \"Your payment has to be the same as the total price of the order.\");\n        Order memory newOrder = Order({\n            purchaser: msg.sender,\n            productId: product.productId,\n            qty: _qty,\n            unitPrice: product.unitPrice,\n            totalPrice: totalPrice,\n            paid: true,\n            shipped: false,\n            received: false\n        });\n        orderNumber++;\n        orders[orderNumber] = newOrder;\n        listedOrderNumbers.push(orderNumber);\n        product.availableQty = product.availableQty - _qty;\n        Product memory updatedProduct = product;\n        emit OrderEvent(newOrder);\n        emit ProductEvent(updatedProduct);\n    } \n    \n    function ship(uint _orderNumber) public {\n        require(msg.sender == seller, \"Sorry, only the seller can ship the order.\");\n        Order storage order = orders[_orderNumber];\n        require(order.paid == true, \"Payment is not made yet. Please pay first.\");\n        require(order.shipped == false, \"The order is already shipped.\");\n        require(order.received == false, \"The order is already received.\");\n        order.shipped = true;\n    }\n\n    function receive(uint _orderNumber) public {\n        Order storage order = orders[_orderNumber];\n        require(msg.sender == order.purchaser, \"Sorry, only the purchaser who ordered the goods/services can receive them.\");\n        require(order.paid == true, \"Payment is not made yet. Please pay first.\");\n        require(order.shipped == true, \"The order is not yet shipped yet.  Please ask your seller to ship.\");\n        require(order.received == false, \"The order is already received.\");\n        order.received = true;\n        seller.transfer(order.totalPrice);\n    }\n\n    function retrieveOrder(uint _orderNumber) public view returns (\n        address, string, uint, uint, uint, bool, bool, bool\n    ) {\n        Order storage order = orders[_orderNumber];\n        return (\n            order.purchaser,\n            order.productId,\n            order.qty,\n            order.unitPrice,\n            order.totalPrice,\n            order.paid,\n            order.shipped,\n            order.received\n        );\n    }\n}",
  "sourcePath": "/Users/nobuyukifujioka/Documents/noby-coding/shop-on-the-block/SalesContract/contracts/SalesContract.sol",
  "compiler": {
    "name": "solc",
    "version": "0.4.24+commit.e67f0147.Emscripten.clang"
  },
  "schemaVersion": "2.0.0",
  "updatedAt": "2018-09-02T17:27:13.465Z"
}