{
  "contractName": "SalesContract",
  "abi": [
    {
      "constant": true,
      "inputs": [],
      "name": "seller",
      "outputs": [
        {
          "name": "",
          "type": "address"
        }
      ],
      "payable": false,
      "stateMutability": "view",
      "type": "function"
    },
    {
      "constant": true,
      "inputs": [
        {
          "name": "",
          "type": "uint256"
        }
      ],
      "name": "products",
      "outputs": [
        {
          "name": "productId",
          "type": "string"
        },
        {
          "name": "productDescription",
          "type": "string"
        },
        {
          "name": "unitPrice",
          "type": "uint256"
        },
        {
          "name": "availableQty",
          "type": "uint256"
        }
      ],
      "payable": false,
      "stateMutability": "view",
      "type": "function"
    },
    {
      "constant": true,
      "inputs": [
        {
          "name": "",
          "type": "uint256"
        }
      ],
      "name": "orders",
      "outputs": [
        {
          "name": "purchaser",
          "type": "address"
        },
        {
          "name": "productIndex",
          "type": "uint256"
        },
        {
          "name": "productId",
          "type": "string"
        },
        {
          "name": "qty",
          "type": "uint256"
        },
        {
          "name": "unitPrice",
          "type": "uint256"
        },
        {
          "name": "totalPrice",
          "type": "uint256"
        },
        {
          "name": "paid",
          "type": "bool"
        },
        {
          "name": "shipped",
          "type": "bool"
        },
        {
          "name": "received",
          "type": "bool"
        }
      ],
      "payable": false,
      "stateMutability": "view",
      "type": "function"
    },
    {
      "inputs": [],
      "payable": true,
      "stateMutability": "payable",
      "type": "constructor"
    },
    {
      "constant": false,
      "inputs": [
        {
          "name": "_productId",
          "type": "string"
        },
        {
          "name": "_productDescription",
          "type": "string"
        },
        {
          "name": "_unitPrice",
          "type": "uint256"
        },
        {
          "name": "_availableQty",
          "type": "uint256"
        }
      ],
      "name": "addProduct",
      "outputs": [],
      "payable": false,
      "stateMutability": "nonpayable",
      "type": "function"
    },
    {
      "constant": true,
      "inputs": [],
      "name": "getProductsCount",
      "outputs": [
        {
          "name": "",
          "type": "uint256"
        }
      ],
      "payable": false,
      "stateMutability": "view",
      "type": "function"
    },
    {
      "constant": false,
      "inputs": [
        {
          "name": "_productIndex",
          "type": "uint256"
        },
        {
          "name": "_qty",
          "type": "uint256"
        }
      ],
      "name": "orderProduct",
      "outputs": [],
      "payable": true,
      "stateMutability": "payable",
      "type": "function"
    },
    {
      "constant": true,
      "inputs": [],
      "name": "getOrdersCount",
      "outputs": [
        {
          "name": "",
          "type": "uint256"
        }
      ],
      "payable": false,
      "stateMutability": "view",
      "type": "function"
    },
    {
      "constant": false,
      "inputs": [
        {
          "name": "_orderIndex",
          "type": "uint256"
        }
      ],
      "name": "ship",
      "outputs": [],
      "payable": false,
      "stateMutability": "nonpayable",
      "type": "function"
    },
    {
      "constant": false,
      "inputs": [
        {
          "name": "_orderIndex",
          "type": "uint256"
        }
      ],
      "name": "receive",
      "outputs": [],
      "payable": false,
      "stateMutability": "nonpayable",
      "type": "function"
    }
  ],
  "bytecode": "0x6080604052336000806101000a81548173ffffffffffffffffffffffffffffffffffffffff021916908373ffffffffffffffffffffffffffffffffffffffff160217905550610f40806100536000396000f300608060405260043610610099576000357c0100000000000000000000000000000000000000000000000000000000900463ffffffff16806301cecd141461009e57806308551a5314610161578063244f643b146101b85780635786fd40146101e55780637acc0b2014610210578063a85c38ef14610330578063b5b3b05114610446578063b7df2fde14610471578063cba2534f1461049b575b600080fd5b3480156100aa57600080fd5b5061015f600480360381019080803590602001908201803590602001908080601f0160208091040260200160405190810160405280939291908181526020018383808284378201915050505050509192919290803590602001908201803590602001908080601f016020809104026020016040519081016040528093929190818152602001838380828437820191505050505050919291929080359060200190929190803590602001909291905050506104c8565b005b34801561016d57600080fd5b506101766105d5565b604051808273ffffffffffffffffffffffffffffffffffffffff1673ffffffffffffffffffffffffffffffffffffffff16815260200191505060405180910390f35b3480156101c457600080fd5b506101e3600480360381019080803590602001909291905050506105fa565b005b3480156101f157600080fd5b506101fa610703565b6040518082815260200191505060405180910390f35b34801561021c57600080fd5b5061023b60048036038101908080359060200190929190505050610710565b604051808060200180602001858152602001848152602001838103835287818151815260200191508051906020019080838360005b8381101561028b578082015181840152602081019050610270565b50505050905090810190601f1680156102b85780820380516001836020036101000a031916815260200191505b50838103825286818151815260200191508051906020019080838360005b838110156102f15780820151818401526020810190506102d6565b50505050905090810190601f16801561031e5780820380516001836020036101000a031916815260200191505b50965050505050505060405180910390f35b34801561033c57600080fd5b5061035b6004803603810190808035906020019092919050505061087f565b604051808a73ffffffffffffffffffffffffffffffffffffffff1673ffffffffffffffffffffffffffffffffffffffff16815260200189815260200180602001888152602001878152602001868152602001851515151581526020018415151515815260200183151515158152602001828103825289818151815260200191508051906020019080838360005b838110156104035780820151818401526020810190506103e8565b50505050905090810190601f1680156104305780820380516001836020036101000a031916815260200191505b509a505050505050505050505060405180910390f35b34801561045257600080fd5b5061045b6109bb565b6040518082815260200191505060405180910390f35b61049960048036038101908080359060200190929190803590602001909291905050506109c8565b005b3480156104a757600080fd5b506104c660048036038101908080359060200190929190505050610c65565b005b6104d0610ddd565b6000809054906101000a900473ffffffffffffffffffffffffffffffffffffffff1673ffffffffffffffffffffffffffffffffffffffff163373ffffffffffffffffffffffffffffffffffffffff1614151561052b57600080fd5b608060405190810160405280868152602001858152602001848152602001838152509050600181908060018154018082558091505090600182039060005260206000209060040201600090919290919091506000820151816000019080519060200190610599929190610e06565b5060208201518160010190805190602001906105b6929190610e06565b5060408201518160020155606082015181600301555050505050505050565b6000809054906101000a900473ffffffffffffffffffffffffffffffffffffffff1681565b60008060009054906101000a900473ffffffffffffffffffffffffffffffffffffffff1673ffffffffffffffffffffffffffffffffffffffff163373ffffffffffffffffffffffffffffffffffffffff1614151561065757600080fd5b60028281548110151561066657fe5b90600052602060002090600702019050600115158160060160009054906101000a900460ff16151514151561069a57600080fd5b600015158160060160019054906101000a900460ff1615151415156106be57600080fd5b600015158160060160029054906101000a900460ff1615151415156106e257600080fd5b60018160060160016101000a81548160ff0219169083151502179055505050565b6000600180549050905090565b60018181548110151561071f57fe5b9060005260206000209060040201600091509050806000018054600181600116156101000203166002900480601f0160208091040260200160405190810160405280929190818152602001828054600181600116156101000203166002900480156107cb5780601f106107a0576101008083540402835291602001916107cb565b820191906000526020600020905b8154815290600101906020018083116107ae57829003601f168201915b505050505090806001018054600181600116156101000203166002900480601f0160208091040260200160405190810160405280929190818152602001828054600181600116156101000203166002900480156108695780601f1061083e57610100808354040283529160200191610869565b820191906000526020600020905b81548152906001019060200180831161084c57829003601f168201915b5050505050908060020154908060030154905084565b60028181548110151561088e57fe5b90600052602060002090600702016000915090508060000160009054906101000a900473ffffffffffffffffffffffffffffffffffffffff1690806001015490806002018054600181600116156101000203166002900480601f0160208091040260200160405190810160405280929190818152602001828054600181600116156101000203166002900480156109665780601f1061093b57610100808354040283529160200191610966565b820191906000526020600020905b81548152906001019060200180831161094957829003601f168201915b5050505050908060030154908060040154908060050154908060060160009054906101000a900460ff16908060060160019054906101000a900460ff16908060060160029054906101000a900460ff16905089565b6000600280549050905090565b6000806109d3610e86565b6001858154811015156109e257fe5b9060005260206000209060040201925060008360030154111515610a0557600080fd5b83836003015410151515610a1857600080fd5b8383600201540291508134141515610a2f57600080fd5b610120604051908101604052803373ffffffffffffffffffffffffffffffffffffffff168152602001868152602001846000018054600181600116156101000203166002900480601f016020809104026020016040519081016040528092919081815260200182805460018160011615610100020316600290048015610af65780601f10610acb57610100808354040283529160200191610af6565b820191906000526020600020905b815481529060010190602001808311610ad957829003601f168201915b50505050508152602001858152602001846002015481526020018381526020016001151581526020016000151581526020016000151581525090506002819080600181540180825580915050906001820390600052602060002090600702016000909192909190915060008201518160000160006101000a81548173ffffffffffffffffffffffffffffffffffffffff021916908373ffffffffffffffffffffffffffffffffffffffff160217905550602082015181600101556040820151816002019080519060200190610bcc929190610e06565b50606082015181600301556080820151816004015560a0820151816005015560c08201518160060160006101000a81548160ff02191690831515021790555060e08201518160060160016101000a81548160ff0219169083151502179055506101008201518160060160026101000a81548160ff0219169083151502179055505050508383600301540383600301819055505050505050565b6000600282815481101515610c7657fe5b906000526020600020906007020190508060000160009054906101000a900473ffffffffffffffffffffffffffffffffffffffff1673ffffffffffffffffffffffffffffffffffffffff163373ffffffffffffffffffffffffffffffffffffffff16141515610ce457600080fd5b600115158160060160009054906101000a900460ff161515141515610d0857600080fd5b600115158160060160019054906101000a900460ff161515141515610d2c57600080fd5b600015158160060160029054906101000a900460ff161515141515610d5057600080fd5b60018160060160026101000a81548160ff0219169083151502179055506000809054906101000a900473ffffffffffffffffffffffffffffffffffffffff1673ffffffffffffffffffffffffffffffffffffffff166108fc82600501549081150290604051600060405180830381858888f19350505050158015610dd8573d6000803e3d6000fd5b505050565b608060405190810160405280606081526020016060815260200160008152602001600081525090565b828054600181600116156101000203166002900490600052602060002090601f016020900481019282601f10610e4757805160ff1916838001178555610e75565b82800160010185558215610e75579182015b82811115610e74578251825591602001919060010190610e59565b5b509050610e829190610eef565b5090565b61012060405190810160405280600073ffffffffffffffffffffffffffffffffffffffff16815260200160008152602001606081526020016000815260200160008152602001600081526020016000151581526020016000151581526020016000151581525090565b610f1191905b80821115610f0d576000816000905550600101610ef5565b5090565b905600a165627a7a72305820f5fbb02cc10f80fc9ab8a7b14723ca818b9892d954673d54a8e276d2a7f5280c0029",
  "source": "pragma solidity ^0.4.17;\n\ncontract SalesContract {\n    address public seller;\n\n    constructor () public payable {\n        seller = msg.sender;\n    }\n    \n    struct Product {\n        string productId;\n        string productDescription;\n        uint unitPrice;\n        uint availableQty;\n    }\n    Product[] public products;\n    \n    function addProduct(\n        string _productId,\n        string _productDescription,\n        uint _unitPrice,\n        uint _availableQty\n    ) public {\n        require(msg.sender == seller);\n        Product memory newProduct = Product({\n           productId: _productId,\n           productDescription: _productDescription,\n           unitPrice: _unitPrice,\n           availableQty: _availableQty\n        });\n        products.push(newProduct);\n    }\n    \n    function getProductsCount() public view returns (uint) {\n        return products.length;\n    }\n    \n    struct Order {\n        address purchaser;\n        uint productIndex;\n        string productId;\n        uint qty;\n        uint unitPrice;\n        uint totalPrice;\n        bool paid;\n        bool shipped;\n        bool received;\n    }\n    \n    Order[] public orders;\n    \n    function orderProduct(uint _productIndex, uint _qty) public payable {\n        Product storage product = products[_productIndex];\n        require(product.availableQty > 0);\n        require(product.availableQty >= _qty);\n        uint totalPrice = product.unitPrice * _qty;\n        require(msg.value == totalPrice);\n        Order memory newOrder = Order({\n            purchaser: msg.sender,\n            productIndex: _productIndex,\n            productId: product.productId,\n            qty: _qty,\n            unitPrice: product.unitPrice,\n            totalPrice: totalPrice,\n            paid: true,\n            shipped: false,\n            received: false\n        });\n        orders.push(newOrder);\n        product.availableQty = product.availableQty - _qty;\n    }\n    \n    function getOrdersCount() public view returns (uint) {\n        return orders.length;\n    }\n    \n    function ship(uint _orderIndex) public {\n        require(msg.sender == seller);\n        Order storage order = orders[_orderIndex];\n        require(order.paid == true);\n        require(order.shipped == false);\n        require(order.received == false);\n        order.shipped = true;\n    }\n\n    function receive(uint _orderIndex) public {\n        Order storage order = orders[_orderIndex];\n        require(msg.sender == order.purchaser);\n        require(order.paid == true);\n        require(order.shipped == true);\n        require(order.received == false);\n        order.received = true;\n        seller.transfer(order.totalPrice);\n    }    \n}",
  "sourcePath": "/Users/nobuyukifujioka/Documents/noby-coding/shop-on-the-block/SalesContract/contracts/SalesContract.sol",
  "compiler": {
    "name": "solc",
    "version": "0.4.24+commit.e67f0147.Emscripten.clang"
  },
  "schemaVersion": "2.0.0",
  "updatedAt": "2018-09-01T04:46:31.763Z"
}