{
  "contractName": "SalesContract",
  "abi": [
    {
      "constant": true,
      "inputs": [],
      "name": "seller",
      "outputs": [
        {
          "name": "",
          "type": "address"
        }
      ],
      "payable": false,
      "stateMutability": "view",
      "type": "function"
    },
    {
      "constant": true,
      "inputs": [
        {
          "name": "",
          "type": "uint256"
        }
      ],
      "name": "listedOrderNumbers",
      "outputs": [
        {
          "name": "",
          "type": "uint256"
        }
      ],
      "payable": false,
      "stateMutability": "view",
      "type": "function"
    },
    {
      "constant": true,
      "inputs": [
        {
          "name": "",
          "type": "uint256"
        }
      ],
      "name": "listedProductsIds",
      "outputs": [
        {
          "name": "",
          "type": "string"
        }
      ],
      "payable": false,
      "stateMutability": "view",
      "type": "function"
    },
    {
      "constant": true,
      "inputs": [],
      "name": "orderNumber",
      "outputs": [
        {
          "name": "",
          "type": "uint256"
        }
      ],
      "payable": false,
      "stateMutability": "view",
      "type": "function"
    },
    {
      "constant": true,
      "inputs": [],
      "name": "productsCount",
      "outputs": [
        {
          "name": "",
          "type": "uint256"
        }
      ],
      "payable": false,
      "stateMutability": "view",
      "type": "function"
    },
    {
      "inputs": [],
      "payable": true,
      "stateMutability": "payable",
      "type": "constructor"
    },
    {
      "constant": false,
      "inputs": [
        {
          "name": "_productId",
          "type": "string"
        },
        {
          "name": "_productDescription",
          "type": "string"
        },
        {
          "name": "_unitPrice",
          "type": "uint256"
        },
        {
          "name": "_availableQty",
          "type": "uint256"
        }
      ],
      "name": "addProduct",
      "outputs": [],
      "payable": false,
      "stateMutability": "nonpayable",
      "type": "function"
    },
    {
      "constant": true,
      "inputs": [],
      "name": "getListedProductsIdLength",
      "outputs": [
        {
          "name": "",
          "type": "uint256"
        }
      ],
      "payable": false,
      "stateMutability": "view",
      "type": "function"
    },
    {
      "constant": true,
      "inputs": [
        {
          "name": "_productId",
          "type": "string"
        }
      ],
      "name": "retrieveProduct",
      "outputs": [
        {
          "name": "",
          "type": "string"
        },
        {
          "name": "",
          "type": "string"
        },
        {
          "name": "",
          "type": "uint256"
        },
        {
          "name": "",
          "type": "uint256"
        }
      ],
      "payable": false,
      "stateMutability": "view",
      "type": "function"
    },
    {
      "constant": false,
      "inputs": [
        {
          "name": "_index",
          "type": "uint256"
        }
      ],
      "name": "deleteListedProduct",
      "outputs": [],
      "payable": false,
      "stateMutability": "nonpayable",
      "type": "function"
    },
    {
      "constant": true,
      "inputs": [
        {
          "name": "_index",
          "type": "uint256"
        }
      ],
      "name": "getListedProduct",
      "outputs": [
        {
          "name": "",
          "type": "string"
        }
      ],
      "payable": false,
      "stateMutability": "view",
      "type": "function"
    },
    {
      "constant": false,
      "inputs": [
        {
          "name": "_productId",
          "type": "string"
        },
        {
          "name": "_qty",
          "type": "uint256"
        }
      ],
      "name": "orderProduct",
      "outputs": [],
      "payable": true,
      "stateMutability": "payable",
      "type": "function"
    },
    {
      "constant": false,
      "inputs": [
        {
          "name": "_orderNumber",
          "type": "uint256"
        }
      ],
      "name": "ship",
      "outputs": [],
      "payable": false,
      "stateMutability": "nonpayable",
      "type": "function"
    },
    {
      "constant": false,
      "inputs": [
        {
          "name": "_orderNumber",
          "type": "uint256"
        }
      ],
      "name": "receive",
      "outputs": [],
      "payable": false,
      "stateMutability": "nonpayable",
      "type": "function"
    },
    {
      "constant": true,
      "inputs": [
        {
          "name": "_orderNumber",
          "type": "uint256"
        }
      ],
      "name": "retrieveOrder",
      "outputs": [
        {
          "name": "",
          "type": "address"
        },
        {
          "name": "",
          "type": "string"
        },
        {
          "name": "",
          "type": "uint256"
        },
        {
          "name": "",
          "type": "uint256"
        },
        {
          "name": "",
          "type": "uint256"
        },
        {
          "name": "",
          "type": "bool"
        },
        {
          "name": "",
          "type": "bool"
        },
        {
          "name": "",
          "type": "bool"
        }
      ],
      "payable": false,
      "stateMutability": "view",
      "type": "function"
    }
  ],
  "bytecode": "0x6080604052336000806101000a81548173ffffffffffffffffffffffffffffffffffffffff021916908373ffffffffffffffffffffffffffffffffffffffff160217905550600060018190555060006002819055506116e7806100636000396000f3006080604052600436106100d0576000357c0100000000000000000000000000000000000000000000000000000000900463ffffffff16806301cecd14146100d557806308551a5314610198578063120f4a97146101ef5780631b4dba9b14610230578063244f643b146102d65780637005578514610303578063785bd392146103695780637e226bb81461040f5780638e373fe01461056b578063b04dd81b1461067a578063c5cae65e146106a5578063cba2534f146106d2578063ccfeea44146106ff578063e0df7bb61461072a575b600080fd5b3480156100e157600080fd5b50610196600480360381019080803590602001908201803590602001908080601f0160208091040260200160405190810160405280939291908181526020018383808284378201915050505050509192919290803590602001908201803590602001908080601f01602080910402602001604051908101604052809392919081815260200183838082843782019150505050505091929192908035906020019092919080359060200190929190505050610755565b005b3480156101a457600080fd5b506101ad6108f1565b604051808273ffffffffffffffffffffffffffffffffffffffff1673ffffffffffffffffffffffffffffffffffffffff16815260200191505060405180910390f35b3480156101fb57600080fd5b5061021a60048036038101908080359060200190929190505050610916565b6040518082815260200191505060405180910390f35b34801561023c57600080fd5b5061025b60048036038101908080359060200190929190505050610939565b6040518080602001828103825283818151815260200191508051906020019080838360005b8381101561029b578082015181840152602081019050610280565b50505050905090810190601f1680156102c85780820380516001836020036101000a031916815260200191505b509250505060405180910390f35b3480156102e257600080fd5b50610301600480360381019080803590602001909291905050506109f4565b005b610367600480360381019080803590602001908201803590602001908080601f016020809104026020016040519081016040528093929190818152602001838380828437820191505050505050919291929080359060200190929190505050610af3565b005b34801561037557600080fd5b5061039460048036038101908080359060200190929190505050610df5565b6040518080602001828103825283818151815260200191508051906020019080838360005b838110156103d45780820151818401526020810190506103b9565b50505050905090810190601f1680156104015780820380516001836020036101000a031916815260200191505b509250505060405180910390f35b34801561041b57600080fd5b50610476600480360381019080803590602001908201803590602001908080601f0160208091040260200160405190810160405280939291908181526020018383808284378201915050505050509192919290505050610eb0565b604051808060200180602001858152602001848152602001838103835287818151815260200191508051906020019080838360005b838110156104c65780820151818401526020810190506104ab565b50505050905090810190601f1680156104f35780820380516001836020036101000a031916815260200191505b50838103825286818151815260200191508051906020019080838360005b8381101561052c578082015181840152602081019050610511565b50505050905090810190601f1680156105595780820380516001836020036101000a031916815260200191505b50965050505050505060405180910390f35b34801561057757600080fd5b50610596600480360381019080803590602001909291905050506111b7565b604051808973ffffffffffffffffffffffffffffffffffffffff1673ffffffffffffffffffffffffffffffffffffffff16815260200180602001888152602001878152602001868152602001851515151581526020018415151515815260200183151515158152602001828103825289818151815260200191508051906020019080838360005b8381101561063857808201518184015260208101905061061d565b50505050905090810190601f1680156106655780820380516001836020036101000a031916815260200191505b50995050505050505050505060405180910390f35b34801561068657600080fd5b5061068f611301565b6040518082815260200191505060405180910390f35b3480156106b157600080fd5b506106d060048036038101908080359060200190929190505050611307565b005b3480156106de57600080fd5b506106fd60048036038101908080359060200190929190505050611342565b005b34801561070b57600080fd5b506107146114b0565b6040518082815260200191505060405180910390f35b34801561073657600080fd5b5061073f6114bd565b6040518082815260200191505060405180910390f35b61075d6114c3565b6000809054906101000a900473ffffffffffffffffffffffffffffffffffffffff1673ffffffffffffffffffffffffffffffffffffffff163373ffffffffffffffffffffffffffffffffffffffff161415156107b857600080fd5b60038590806001815401808255809150509060018203906000526020600020016000909192909190915090805190602001906107f59291906114ec565b5050608060405190810160405280868152602001858152602001848152602001838152509050806004866040518082805190602001908083835b602083101515610854578051825260208201915060208101905060208303925061082f565b6001836020036101000a038019825116818451168082178552505050505050905001915050908152602001604051809103902060008201518160000190805190602001906108a392919061156c565b5060208201518160010190805190602001906108c092919061156c565b5060408201518160020155606082015181600301559050506002600081548092919060010191905055505050505050565b6000809054906101000a900473ffffffffffffffffffffffffffffffffffffffff1681565b60068181548110151561092557fe5b906000526020600020016000915090505481565b606060038281548110151561094a57fe5b906000526020600020018054600181600116156101000203166002900480601f0160208091040260200160405190810160405280929190818152602001828054600181600116156101000203166002900480156109e85780601f106109bd576101008083540402835291602001916109e8565b820191906000526020600020905b8154815290600101906020018083116109cb57829003601f168201915b50505050509050919050565b60008060009054906101000a900473ffffffffffffffffffffffffffffffffffffffff1673ffffffffffffffffffffffffffffffffffffffff163373ffffffffffffffffffffffffffffffffffffffff16141515610a5157600080fd5b600560008381526020019081526020016000209050600115158160050160009054906101000a900460ff161515141515610a8a57600080fd5b600015158160050160019054906101000a900460ff161515141515610aae57600080fd5b600015158160050160029054906101000a900460ff161515141515610ad257600080fd5b60018160050160016101000a81548160ff0219169083151502179055505050565b600080610afe6115ec565b6004856040518082805190602001908083835b602083101515610b365780518252602082019150602081019050602083039250610b11565b6001836020036101000a0380198251168184511680821785525050505050509050019150509081526020016040518091039020925060008360030154111515610b7e57600080fd5b83836003015410151515610b9157600080fd5b8383600201540291508134141515610ba857600080fd5b610100604051908101604052803373ffffffffffffffffffffffffffffffffffffffff168152602001846000018054600181600116156101000203166002900480601f016020809104026020016040519081016040528092919081815260200182805460018160011615610100020316600290048015610c695780601f10610c3e57610100808354040283529160200191610c69565b820191906000526020600020905b815481529060010190602001808311610c4c57829003601f168201915b50505050508152602001858152602001846002015481526020018381526020016001151581526020016000151581526020016000151581525090506001600081548092919060010191905055508060056000600154815260200190815260200160002060008201518160000160006101000a81548173ffffffffffffffffffffffffffffffffffffffff021916908373ffffffffffffffffffffffffffffffffffffffff1602179055506020820151816001019080519060200190610d2f92919061156c565b5060408201518160020155606082015181600301556080820151816004015560a08201518160050160006101000a81548160ff02191690831515021790555060c08201518160050160016101000a81548160ff02191690831515021790555060e08201518160050160026101000a81548160ff021916908315150217905550905050600660015490806001815401808255809150509060018203906000526020600020016000909192909190915055508383600301540383600301819055505050505050565b600381815481101515610e0457fe5b906000526020600020016000915090508054600181600116156101000203166002900480601f016020809104026020016040519081016040528092919081815260200182805460018160011615610100020316600290048015610ea85780601f10610e7d57610100808354040283529160200191610ea8565b820191906000526020600020905b815481529060010190602001808311610e8b57829003601f168201915b505050505081565b6060806000806004856040518082805190602001908083835b602083101515610eee5780518252602082019150602081019050602083039250610ec9565b6001836020036101000a03801982511681845116808217855250505050505090500191505090815260200160405180910390206000016004866040518082805190602001908083835b602083101515610f5c5780518252602082019150602081019050602083039250610f37565b6001836020036101000a03801982511681845116808217855250505050505090500191505090815260200160405180910390206001016004876040518082805190602001908083835b602083101515610fca5780518252602082019150602081019050602083039250610fa5565b6001836020036101000a0380198251168184511680821785525050505050509050019150509081526020016040518091039020600201546004886040518082805190602001908083835b6020831015156110395780518252602082019150602081019050602083039250611014565b6001836020036101000a038019825116818451168082178552505050505050905001915050908152602001604051809103902060030154838054600181600116156101000203166002900480601f0160208091040260200160405190810160405280929190818152602001828054600181600116156101000203166002900480156111055780601f106110da57610100808354040283529160200191611105565b820191906000526020600020905b8154815290600101906020018083116110e857829003601f168201915b50505050509350828054600181600116156101000203166002900480601f0160208091040260200160405190810160405280929190818152602001828054600181600116156101000203166002900480156111a15780601f10611176576101008083540402835291602001916111a1565b820191906000526020600020905b81548152906001019060200180831161118457829003601f168201915b5050505050925093509350935093509193509193565b600060606000806000806000806000600560008b815260200190815260200160002090508060000160009054906101000a900473ffffffffffffffffffffffffffffffffffffffff16816001018260020154836003015484600401548560050160009054906101000a900460ff168660050160019054906101000a900460ff168760050160029054906101000a900460ff16868054600181600116156101000203166002900480601f0160208091040260200160405190810160405280929190818152602001828054600181600116156101000203166002900480156112de5780601f106112b3576101008083540402835291602001916112de565b820191906000526020600020905b8154815290600101906020018083116112c157829003601f168201915b505050505096509850985098509850985098509850985050919395975091939597565b60015481565b60038181548110151561131657fe5b90600052602060002001600061132c919061164e565b6002600081548092919060019003919050555050565b60006005600083815260200190815260200160002090508060000160009054906101000a900473ffffffffffffffffffffffffffffffffffffffff1673ffffffffffffffffffffffffffffffffffffffff163373ffffffffffffffffffffffffffffffffffffffff161415156113b757600080fd5b600115158160050160009054906101000a900460ff1615151415156113db57600080fd5b600115158160050160019054906101000a900460ff1615151415156113ff57600080fd5b600015158160050160029054906101000a900460ff16151514151561142357600080fd5b60018160050160026101000a81548160ff0219169083151502179055506000809054906101000a900473ffffffffffffffffffffffffffffffffffffffff1673ffffffffffffffffffffffffffffffffffffffff166108fc82600401549081150290604051600060405180830381858888f193505050501580156114ab573d6000803e3d6000fd5b505050565b6000600380549050905090565b60025481565b608060405190810160405280606081526020016060815260200160008152602001600081525090565b828054600181600116156101000203166002900490600052602060002090601f016020900481019282601f1061152d57805160ff191683800117855561155b565b8280016001018555821561155b579182015b8281111561155a57825182559160200191906001019061153f565b5b5090506115689190611696565b5090565b828054600181600116156101000203166002900490600052602060002090601f016020900481019282601f106115ad57805160ff19168380011785556115db565b828001600101855582156115db579182015b828111156115da5782518255916020019190600101906115bf565b5b5090506115e89190611696565b5090565b61010060405190810160405280600073ffffffffffffffffffffffffffffffffffffffff168152602001606081526020016000815260200160008152602001600081526020016000151581526020016000151581526020016000151581525090565b50805460018160011615610100020316600290046000825580601f106116745750611693565b601f0160209004906000526020600020908101906116929190611696565b5b50565b6116b891905b808211156116b457600081600090555060010161169c565b5090565b905600a165627a7a72305820bfa1089b5597e0f97b53525913fcfe2ce3e5a56b11871974257e91373fb5af3a0029",
  "source": "pragma solidity ^0.4.17;\n// pragma experimental ABIEncoderV2;\n\ncontract SalesContract {\n    address public seller;\n    uint public orderNumber;\n    uint public productsCount;\n\n    string[] public listedProductsIds;\n    mapping(string => Product) products;\n    \n    struct Product {\n        string productId;\n        string productDescription;\n        uint unitPrice;\n        uint availableQty;\n    }\n    \n    struct Order {\n        address purchaser;\n        string productId;\n        uint qty;\n        uint unitPrice;\n        uint totalPrice;\n        bool paid;\n        bool shipped;\n        bool received;\n    }\n    \n    mapping(uint => Order) orders;\n    uint[] public listedOrderNumbers;\n    \n    constructor () public payable {\n        seller = msg.sender;\n        orderNumber = 0;\n        productsCount = 0;\n    }\n    \n    // products functions\n    function addProduct(\n        string _productId,\n        string _productDescription,\n        uint _unitPrice,\n        uint _availableQty\n    ) public {\n        require(msg.sender == seller);\n        listedProductsIds.push(_productId);\n        Product memory newProduct = Product({\n           productId: _productId,\n           productDescription: _productDescription,\n           unitPrice: _unitPrice,\n           availableQty: _availableQty\n        });\n        products[_productId] = newProduct;\n        productsCount++;\n    }\n    \n    function getListedProductsIdLength() public view returns (uint) {\n        return listedProductsIds.length;\n    }\n    \n    function retrieveProduct(string _productId) public view returns (\n        string, string, uint, uint\n    ) {\n        return (\n            products[_productId].productId,\n            products[_productId].productDescription,\n            products[_productId].unitPrice,\n            products[_productId].availableQty\n        );\n    }\n    \n    function deleteListedProduct(uint _index) public {\n        delete listedProductsIds[_index];\n        productsCount--;\n    }\n    // function getListedProductsId(uint _index) public view returns (string) {\n    //     return listedProductsIds[_index];\n    // }\n    function getListedProduct(uint _index) public view returns (string) {\n        return listedProductsIds[_index];\n    }\n    \n    // Orders functions\n    function orderProduct(string _productId, uint _qty) public payable {\n        Product storage product = products[_productId];\n        require(product.availableQty > 0);\n        require(product.availableQty >= _qty);\n        uint totalPrice = product.unitPrice * _qty;\n        require(msg.value == totalPrice);\n        Order memory newOrder = Order({\n            purchaser: msg.sender,\n            productId: product.productId,\n            qty: _qty,\n            unitPrice: product.unitPrice,\n            totalPrice: totalPrice,\n            paid: true,\n            shipped: false,\n            received: false\n        });\n        orderNumber++;\n        orders[orderNumber] = newOrder;\n        listedOrderNumbers.push(orderNumber);\n        product.availableQty = product.availableQty - _qty;\n    } \n    \n    function ship(uint _orderNumber) public {\n        require(msg.sender == seller);\n        Order storage order = orders[_orderNumber];\n        require(order.paid == true);\n        require(order.shipped == false);\n        require(order.received == false);\n        order.shipped = true;\n    }\n\n    function receive(uint _orderNumber) public {\n        Order storage order = orders[_orderNumber];\n        require(msg.sender == order.purchaser);\n        require(order.paid == true);\n        require(order.shipped == true);\n        require(order.received == false);\n        order.received = true;\n        seller.transfer(order.totalPrice);\n    }\n\n    function retrieveOrder(uint _orderNumber) public view returns (\n        address, string, uint, uint, uint, bool, bool, bool\n    ) {\n        Order storage order = orders[_orderNumber];\n        return (\n            order.purchaser,\n            order.productId,\n            order.qty,\n            order.unitPrice,\n            order.totalPrice,\n            order.paid,\n            order.shipped,\n            order.received\n        );\n    }\n}",
  "sourcePath": "/Users/nobuyukifujioka/Documents/noby-coding/shop-on-the-block/SalesContract/contracts/SalesContract.sol",
  "compiler": {
    "name": "solc",
    "version": "0.4.24+commit.e67f0147.Emscripten.clang"
  },
  "schemaVersion": "2.0.0",
  "updatedAt": "2018-09-02T02:02:02.495Z"
}