{
  "contractName": "SalesContract",
  "abi": [
    {
      "constant": true,
      "inputs": [],
      "name": "seller",
      "outputs": [
        {
          "name": "",
          "type": "address"
        }
      ],
      "payable": false,
      "stateMutability": "view",
      "type": "function"
    },
    {
      "constant": true,
      "inputs": [
        {
          "name": "",
          "type": "uint256"
        }
      ],
      "name": "listedOrderNumbers",
      "outputs": [
        {
          "name": "",
          "type": "uint256"
        }
      ],
      "payable": false,
      "stateMutability": "view",
      "type": "function"
    },
    {
      "constant": true,
      "inputs": [
        {
          "name": "",
          "type": "uint256"
        }
      ],
      "name": "listedProductsIds",
      "outputs": [
        {
          "name": "",
          "type": "string"
        }
      ],
      "payable": false,
      "stateMutability": "view",
      "type": "function"
    },
    {
      "constant": true,
      "inputs": [],
      "name": "orderNumber",
      "outputs": [
        {
          "name": "",
          "type": "uint256"
        }
      ],
      "payable": false,
      "stateMutability": "view",
      "type": "function"
    },
    {
      "constant": true,
      "inputs": [],
      "name": "productsCount",
      "outputs": [
        {
          "name": "",
          "type": "uint256"
        }
      ],
      "payable": false,
      "stateMutability": "view",
      "type": "function"
    },
    {
      "inputs": [],
      "payable": true,
      "stateMutability": "payable",
      "type": "constructor"
    },
    {
      "constant": false,
      "inputs": [
        {
          "name": "_productId",
          "type": "string"
        },
        {
          "name": "_productDescription",
          "type": "string"
        },
        {
          "name": "_unitPrice",
          "type": "uint256"
        },
        {
          "name": "_availableQty",
          "type": "uint256"
        }
      ],
      "name": "addProduct",
      "outputs": [],
      "payable": false,
      "stateMutability": "nonpayable",
      "type": "function"
    },
    {
      "constant": true,
      "inputs": [
        {
          "name": "_productId",
          "type": "string"
        }
      ],
      "name": "retrieveProduct",
      "outputs": [
        {
          "components": [
            {
              "name": "productId",
              "type": "string"
            },
            {
              "name": "productDescription",
              "type": "string"
            },
            {
              "name": "unitPrice",
              "type": "uint256"
            },
            {
              "name": "availableQty",
              "type": "uint256"
            }
          ],
          "name": "",
          "type": "tuple"
        }
      ],
      "payable": false,
      "stateMutability": "view",
      "type": "function"
    },
    {
      "constant": false,
      "inputs": [
        {
          "name": "_index",
          "type": "uint256"
        }
      ],
      "name": "deleteListedProduct",
      "outputs": [],
      "payable": false,
      "stateMutability": "nonpayable",
      "type": "function"
    },
    {
      "constant": true,
      "inputs": [],
      "name": "getListedProductsIds",
      "outputs": [
        {
          "name": "",
          "type": "string[]"
        }
      ],
      "payable": false,
      "stateMutability": "view",
      "type": "function"
    },
    {
      "constant": false,
      "inputs": [
        {
          "name": "_productId",
          "type": "string"
        },
        {
          "name": "_qty",
          "type": "uint256"
        }
      ],
      "name": "orderProduct",
      "outputs": [],
      "payable": true,
      "stateMutability": "payable",
      "type": "function"
    },
    {
      "constant": false,
      "inputs": [
        {
          "name": "_orderNumber",
          "type": "uint256"
        }
      ],
      "name": "ship",
      "outputs": [],
      "payable": false,
      "stateMutability": "nonpayable",
      "type": "function"
    },
    {
      "constant": false,
      "inputs": [
        {
          "name": "_orderNumber",
          "type": "uint256"
        }
      ],
      "name": "receive",
      "outputs": [],
      "payable": false,
      "stateMutability": "nonpayable",
      "type": "function"
    },
    {
      "constant": true,
      "inputs": [
        {
          "name": "_orderNumber",
          "type": "uint256"
        }
      ],
      "name": "retrieveOrder",
      "outputs": [
        {
          "components": [
            {
              "name": "purchaser",
              "type": "address"
            },
            {
              "name": "productId",
              "type": "string"
            },
            {
              "name": "qty",
              "type": "uint256"
            },
            {
              "name": "unitPrice",
              "type": "uint256"
            },
            {
              "name": "totalPrice",
              "type": "uint256"
            },
            {
              "name": "paid",
              "type": "bool"
            },
            {
              "name": "shipped",
              "type": "bool"
            },
            {
              "name": "received",
              "type": "bool"
            }
          ],
          "name": "",
          "type": "tuple"
        }
      ],
      "payable": false,
      "stateMutability": "view",
      "type": "function"
    }
  ],
  "bytecode": "0x6080604052336000806101000a81548173ffffffffffffffffffffffffffffffffffffffff021916908373ffffffffffffffffffffffffffffffffffffffff160217905550600060018190555061178e8061005b6000396000f3006080604052600436106100c5576000357c0100000000000000000000000000000000000000000000000000000000900463ffffffff16806301cecd14146100ca57806308551a53146100f3578063120f4a971461011e578063244f643b1461015b5780637005578514610184578063785bd392146101a05780637e226bb8146101dd5780638e373fe01461021a578063b04dd81b14610257578063b6964b5b14610282578063c5cae65e146102ad578063cba2534f146102d6578063e0df7bb6146102ff575b600080fd5b3480156100d657600080fd5b506100f160048036036100ec919081019061127f565b61032a565b005b3480156100ff57600080fd5b506101086104c6565b604051610115919061157a565b60405180910390f35b34801561012a57600080fd5b5061014560048036036101409190810190611366565b6104eb565b604051610152919061161d565b60405180910390f35b34801561016757600080fd5b50610182600480360361017d9190810190611366565b61050e565b005b61019e60048036036101999190810190611312565b61060d565b005b3480156101ac57600080fd5b506101c760048036036101c29190810190611366565b61090f565b6040516101d491906115b7565b60405180910390f35b3480156101e957600080fd5b5061020460048036036101ff919081019061123e565b6109ca565b60405161021191906115fb565b60405180910390f35b34801561022657600080fd5b50610241600480360361023c9190810190611366565b610ba8565b60405161024e91906115d9565b60405180910390f35b34801561026357600080fd5b5061026c610d3e565b604051610279919061161d565b60405180910390f35b34801561028e57600080fd5b50610297610d44565b6040516102a49190611595565b60405180910390f35b3480156102b957600080fd5b506102d460048036036102cf9190810190611366565b610e2d565b005b3480156102e257600080fd5b506102fd60048036036102f89190810190611366565b610e68565b005b34801561030b57600080fd5b50610314610fd6565b604051610321919061161d565b60405180910390f35b610332610fdc565b6000809054906101000a900473ffffffffffffffffffffffffffffffffffffffff1673ffffffffffffffffffffffffffffffffffffffff163373ffffffffffffffffffffffffffffffffffffffff1614151561038d57600080fd5b608060405190810160405280868152602001858152602001848152602001838152509050806003866040518082805190602001908083835b6020831015156103ea57805182526020820191506020810190506020830392506103c5565b6001836020036101000a03801982511681845116808217855250505050505090500191505090815260200160405180910390206000820151816000019080519060200190610439929190611005565b506020820151816001019080519060200190610456929190611005565b50604082015181600201556060820151816003015590505060028590806001815401808255809150509060018203906000526020600020016000909192909190915090805190602001906104ab929190611085565b50506004600081548092919060010191905055505050505050565b6000809054906101000a900473ffffffffffffffffffffffffffffffffffffffff1681565b6006818154811015156104fa57fe5b906000526020600020016000915090505481565b60008060009054906101000a900473ffffffffffffffffffffffffffffffffffffffff1673ffffffffffffffffffffffffffffffffffffffff163373ffffffffffffffffffffffffffffffffffffffff1614151561056b57600080fd5b600560008381526020019081526020016000209050600115158160050160009054906101000a900460ff1615151415156105a457600080fd5b600015158160050160019054906101000a900460ff1615151415156105c857600080fd5b600015158160050160029054906101000a900460ff1615151415156105ec57600080fd5b60018160050160016101000a81548160ff0219169083151502179055505050565b600080610618611105565b6003856040518082805190602001908083835b602083101515610650578051825260208201915060208101905060208303925061062b565b6001836020036101000a038019825116818451168082178552505050505050905001915050908152602001604051809103902092506000836003015411151561069857600080fd5b838360030154101515156106ab57600080fd5b83836002015402915081341415156106c257600080fd5b610100604051908101604052803373ffffffffffffffffffffffffffffffffffffffff168152602001846000018054600181600116156101000203166002900480601f0160208091040260200160405190810160405280929190818152602001828054600181600116156101000203166002900480156107835780601f1061075857610100808354040283529160200191610783565b820191906000526020600020905b81548152906001019060200180831161076657829003601f168201915b50505050508152602001858152602001846002015481526020018381526020016001151581526020016000151581526020016000151581525090506001600081548092919060010191905055508060056000600154815260200190815260200160002060008201518160000160006101000a81548173ffffffffffffffffffffffffffffffffffffffff021916908373ffffffffffffffffffffffffffffffffffffffff1602179055506020820151816001019080519060200190610849929190611005565b5060408201518160020155606082015181600301556080820151816004015560a08201518160050160006101000a81548160ff02191690831515021790555060c08201518160050160016101000a81548160ff02191690831515021790555060e08201518160050160026101000a81548160ff021916908315150217905550905050600660015490806001815401808255809150509060018203906000526020600020016000909192909190915055508383600301540383600301819055505050505050565b60028181548110151561091e57fe5b906000526020600020016000915090508054600181600116156101000203166002900480601f0160208091040260200160405190810160405280929190818152602001828054600181600116156101000203166002900480156109c25780601f10610997576101008083540402835291602001916109c2565b820191906000526020600020905b8154815290600101906020018083116109a557829003601f168201915b505050505081565b6109d2610fdc565b6003826040518082805190602001908083835b602083101515610a0a57805182526020820191506020810190506020830392506109e5565b6001836020036101000a038019825116818451168082178552505050505050905001915050908152602001604051809103902060806040519081016040529081600082018054600181600116156101000203166002900480601f016020809104026020016040519081016040528092919081815260200182805460018160011615610100020316600290048015610ae25780601f10610ab757610100808354040283529160200191610ae2565b820191906000526020600020905b815481529060010190602001808311610ac557829003601f168201915b50505050508152602001600182018054600181600116156101000203166002900480601f016020809104026020016040519081016040528092919081815260200182805460018160011615610100020316600290048015610b845780601f10610b5957610100808354040283529160200191610b84565b820191906000526020600020905b815481529060010190602001808311610b6757829003601f168201915b50505050508152602001600282015481526020016003820154815250509050919050565b610bb0611105565b6005600083815260200190815260200160002061010060405190810160405290816000820160009054906101000a900473ffffffffffffffffffffffffffffffffffffffff1673ffffffffffffffffffffffffffffffffffffffff1673ffffffffffffffffffffffffffffffffffffffff168152602001600182018054600181600116156101000203166002900480601f016020809104026020016040519081016040528092919081815260200182805460018160011615610100020316600290048015610cbf5780601f10610c9457610100808354040283529160200191610cbf565b820191906000526020600020905b815481529060010190602001808311610ca257829003601f168201915b505050505081526020016002820154815260200160038201548152602001600482015481526020016005820160009054906101000a900460ff161515151581526020016005820160019054906101000a900460ff161515151581526020016005820160029054906101000a900460ff1615151515815250509050919050565b60015481565b60606002805480602002602001604051908101604052809291908181526020016000905b82821015610e24578382906000526020600020018054600181600116156101000203166002900480601f016020809104026020016040519081016040528092919081815260200182805460018160011615610100020316600290048015610e105780601f10610de557610100808354040283529160200191610e10565b820191906000526020600020905b815481529060010190602001808311610df357829003601f168201915b505050505081526020019060010190610d68565b50505050905090565b600281815481101515610e3c57fe5b906000526020600020016000610e529190611167565b6004600081548092919060019003919050555050565b60006005600083815260200190815260200160002090508060000160009054906101000a900473ffffffffffffffffffffffffffffffffffffffff1673ffffffffffffffffffffffffffffffffffffffff163373ffffffffffffffffffffffffffffffffffffffff16141515610edd57600080fd5b600115158160050160009054906101000a900460ff161515141515610f0157600080fd5b600115158160050160019054906101000a900460ff161515141515610f2557600080fd5b600015158160050160029054906101000a900460ff161515141515610f4957600080fd5b60018160050160026101000a81548160ff0219169083151502179055506000809054906101000a900473ffffffffffffffffffffffffffffffffffffffff1673ffffffffffffffffffffffffffffffffffffffff166108fc82600401549081150290604051600060405180830381858888f19350505050158015610fd1573d6000803e3d6000fd5b505050565b60045481565b608060405190810160405280606081526020016060815260200160008152602001600081525090565b828054600181600116156101000203166002900490600052602060002090601f016020900481019282601f1061104657805160ff1916838001178555611074565b82800160010185558215611074579182015b82811115611073578251825591602001919060010190611058565b5b50905061108191906111af565b5090565b828054600181600116156101000203166002900490600052602060002090601f016020900481019282601f106110c657805160ff19168380011785556110f4565b828001600101855582156110f4579182015b828111156110f35782518255916020019190600101906110d8565b5b50905061110191906111af565b5090565b61010060405190810160405280600073ffffffffffffffffffffffffffffffffffffffff168152602001606081526020016000815260200160008152602001600081526020016000151581526020016000151581526020016000151581525090565b50805460018160011615610100020316600290046000825580601f1061118d57506111ac565b601f0160209004906000526020600020908101906111ab91906111af565b5b50565b6111d191905b808211156111cd5760008160009055506001016111b5565b5090565b90565b600082601f83011215156111e757600080fd5b81356111fa6111f582611665565b611638565b9150808252602083016020830185838301111561121657600080fd5b611221838284611701565b50505092915050565b600061123682356116f7565b905092915050565b60006020828403121561125057600080fd5b600082013567ffffffffffffffff81111561126a57600080fd5b611276848285016111d4565b91505092915050565b6000806000806080858703121561129557600080fd5b600085013567ffffffffffffffff8111156112af57600080fd5b6112bb878288016111d4565b945050602085013567ffffffffffffffff8111156112d857600080fd5b6112e4878288016111d4565b93505060406112f58782880161122a565b92505060606113068782880161122a565b91505092959194509250565b6000806040838503121561132557600080fd5b600083013567ffffffffffffffff81111561133f57600080fd5b61134b858286016111d4565b925050602061135c8582860161122a565b9150509250929050565b60006020828403121561137857600080fd5b60006113868482850161122a565b91505092915050565b611398816116c1565b82525050565b60006113a98261169e565b808452602084019350836020820285016113c285611691565b60005b848110156113fb5783830388526113dd83835161141b565b92506113e8826116b4565b91506020880197506001810190506113c5565b508196508694505050505092915050565b611415816116e1565b82525050565b6000611426826116a9565b80845261143a816020860160208601611710565b61144381611743565b602085010191505092915050565b60006101008301600083015161146a600086018261138f565b5060208301518482036020860152611482828261141b565b9150506040830151611497604086018261156b565b5060608301516114aa606086018261156b565b5060808301516114bd608086018261156b565b5060a08301516114d060a086018261140c565b5060c08301516114e360c086018261140c565b5060e08301516114f660e086018261140c565b508091505092915050565b6000608083016000830151848203600086015261151e828261141b565b91505060208301518482036020860152611538828261141b565b915050604083015161154d604086018261156b565b506060830151611560606086018261156b565b508091505092915050565b611574816116ed565b82525050565b600060208201905061158f600083018461138f565b92915050565b600060208201905081810360008301526115af818461139e565b905092915050565b600060208201905081810360008301526115d1818461141b565b905092915050565b600060208201905081810360008301526115f38184611451565b905092915050565b600060208201905081810360008301526116158184611501565b905092915050565b6000602082019050611632600083018461156b565b92915050565b6000604051905081810181811067ffffffffffffffff8211171561165b57600080fd5b8060405250919050565b600067ffffffffffffffff82111561167c57600080fd5b601f19601f8301169050602081019050919050565b6000602082019050919050565b600081519050919050565b600081519050919050565b6000602082019050919050565b600073ffffffffffffffffffffffffffffffffffffffff82169050919050565b60008115159050919050565b6000819050919050565b6000819050919050565b82818337600083830152505050565b60005b8381101561172e578082015181840152602081019050611713565b8381111561173d576000848401525b50505050565b6000601f19601f83011690509190505600a265627a7a72305820f16b7b58edfcdd286e98b4083e9c120728d2eb7eb57d8359f51fd1d308bf02526c6578706572696d656e74616cf50037",
  "source": "pragma solidity ^0.4.17;\npragma experimental ABIEncoderV2;\n\ncontract SalesContract {\n    address public seller;\n    uint public orderNumber;\n    \n    constructor () public payable {\n        seller = msg.sender;\n        orderNumber = 0;\n    }\n    \n    // Products\n    string[] public listedProductsIds;\n    mapping(string => Product) products;\n    uint public productsCount;\n    \n    struct Product {\n        string productId;\n        string productDescription;\n        uint unitPrice;\n        uint availableQty;\n    }\n    \n    function addProduct(\n        string _productId,\n        string _productDescription,\n        uint _unitPrice,\n        uint _availableQty\n    ) public {\n        require(msg.sender == seller);\n        Product memory newProduct = Product({\n           productId: _productId,\n           productDescription: _productDescription,\n           unitPrice: _unitPrice,\n           availableQty: _availableQty\n        });\n        products[_productId] = newProduct;\n        listedProductsIds.push(_productId);\n        productsCount++;\n    }\n    \n    function retrieveProduct(string _productId) public view returns (Product) {\n        return products[_productId];\n    }\n    \n    function deleteListedProduct(uint _index) public {\n        delete listedProductsIds[_index];\n        productsCount--;\n    }\n    \n    function getListedProductsIds() public view returns (string[]) {\n        return listedProductsIds;\n    }\n    \n    // Orders\n    struct Order {\n        address purchaser;\n        string productId;\n        uint qty;\n        uint unitPrice;\n        uint totalPrice;\n        bool paid;\n        bool shipped;\n        bool received;\n    }\n    \n    mapping(uint => Order) orders;\n    uint[] public listedOrderNumbers;\n    \n    function orderProduct(string _productId, uint _qty) public payable {\n        Product storage product = products[_productId];\n        require(product.availableQty > 0);\n        require(product.availableQty >= _qty);\n        uint totalPrice = product.unitPrice * _qty;\n        require(msg.value == totalPrice);\n        Order memory newOrder = Order({\n            purchaser: msg.sender,\n            productId: product.productId,\n            qty: _qty,\n            unitPrice: product.unitPrice,\n            totalPrice: totalPrice,\n            paid: true,\n            shipped: false,\n            received: false\n        });\n        orderNumber++;\n        orders[orderNumber] = newOrder;\n        listedOrderNumbers.push(orderNumber);\n        product.availableQty = product.availableQty - _qty;\n    } \n    \n    function ship(uint _orderNumber) public {\n        require(msg.sender == seller);\n        Order storage order = orders[_orderNumber];\n        require(order.paid == true);\n        require(order.shipped == false);\n        require(order.received == false);\n        order.shipped = true;\n    }\n\n    function receive(uint _orderNumber) public {\n        Order storage order = orders[_orderNumber];\n        require(msg.sender == order.purchaser);\n        require(order.paid == true);\n        require(order.shipped == true);\n        require(order.received == false);\n        order.received = true;\n        seller.transfer(order.totalPrice);\n    }\n    \n    function retrieveOrder(uint _orderNumber) public view returns (Order) {\n        return orders[_orderNumber];\n    }    \n}",
  "sourcePath": "/Users/nobuyukifujioka/Documents/noby-coding/shop-on-the-block/SalesContract/contracts/SalesContract.sol",
  "compiler": {
    "name": "solc",
    "version": "0.4.24+commit.e67f0147.Emscripten.clang"
  },
  "schemaVersion": "2.0.0",
  "updatedAt": "2018-09-01T20:05:21.975Z"
}